{
  "contractName": "Exchange",
  "abi": [
    {
      "inputs": [
        {
          "internalType": "address",
          "name": "_feeAccount",
          "type": "address"
        },
        {
          "internalType": "uint256",
          "name": "_feePercent",
          "type": "uint256"
        }
      ],
      "stateMutability": "nonpayable",
      "type": "constructor"
    },
    {
      "inputs": [],
      "name": "feeAccount",
      "outputs": [
        {
          "internalType": "address",
          "name": "",
          "type": "address"
        }
      ],
      "stateMutability": "view",
      "type": "function"
    },
    {
      "inputs": [],
      "name": "feePercent",
      "outputs": [
        {
          "internalType": "uint256",
          "name": "",
          "type": "uint256"
        }
      ],
      "stateMutability": "view",
      "type": "function"
    },
    {
      "inputs": [
        {
          "internalType": "address",
          "name": "_token",
          "type": "address"
        },
        {
          "internalType": "uint256",
          "name": "_amount",
          "type": "uint256"
        }
      ],
      "name": "depositToken",
      "outputs": [],
      "stateMutability": "nonpayable",
      "type": "function"
    }
  ],
  "bytecode": "0x608060405234801561001057600080fd5b506040516102fe3803806102fe8339818101604052604081101561003357600080fd5b810190808051906020019092919080519060200190929190505050816000806101000a81548173ffffffffffffffffffffffffffffffffffffffff021916908373ffffffffffffffffffffffffffffffffffffffff160217905550806001819055505050610258806100a66000396000f3fe608060405234801561001057600080fd5b50600436106100415760003560e01c8063338b5dea1461004657806365e17c9d146100945780637fd6f15c146100de575b600080fd5b6100926004803603604081101561005c57600080fd5b81019080803573ffffffffffffffffffffffffffffffffffffffff169060200190929190803590602001909291905050506100fc565b005b61009c6101f7565b604051808273ffffffffffffffffffffffffffffffffffffffff1673ffffffffffffffffffffffffffffffffffffffff16815260200191505060405180910390f35b6100e661021c565b6040518082815260200191505060405180910390f35b8173ffffffffffffffffffffffffffffffffffffffff166323b872dd3330846040518463ffffffff1660e01b8152600401808473ffffffffffffffffffffffffffffffffffffffff1673ffffffffffffffffffffffffffffffffffffffff1681526020018373ffffffffffffffffffffffffffffffffffffffff1673ffffffffffffffffffffffffffffffffffffffff1681526020018281526020019350505050602060405180830381600087803b1580156101b757600080fd5b505af11580156101cb573d6000803e3d6000fd5b505050506040513d60208110156101e157600080fd5b8101908080519060200190929190505050505050565b6000809054906101000a900473ffffffffffffffffffffffffffffffffffffffff1681565b6001548156fea2646970667358221220db64e3326ac42e5b48dc449fe1ca58051ecdefe0be11bb2266dea02fa7490b5264736f6c63430006010033",
  "source": "// Deposit & Withdraw Funds\n// Manage Orders - Make or Cancel\n// Handle Trades - Charge fees\n\n// SPDX-License-Identifier: MIT\npragma solidity >=0.4.22 <0.9.0;\nimport './Token.sol';\n\ncontract Exchange {\n    // Variables\n    address public feeAccount;\n    uint256 public feePercent; // \n\n    constructor(address _feeAccount,uint256 _feePercent) public {\n        feeAccount = _feeAccount;\n        feePercent = _feePercent;\n    }\n\n    function depositToken(address _token,uint256 _amount) public {\n        // transferFrom 允许交易所将代币转移到自己身上 \n        Token(_token).transferFrom(msg.sender, address(this), _amount);\n\n    }\n\n}",
  "sourcePath": "/Users/caiminmin/Desktop/caiminmin/practive/dApp/src/contracts/Exchange.sol",
  "compiler": {
    "name": "solc",
    "version": "0.6.1+commit.e6f7d5a4.Emscripten.clang"
  },
  "schemaVersion": "3.4.16",
  "updatedAt": "2024-04-17T15:32:06.188Z",
  "devdoc": {
    "methods": {}
  },
  "userdoc": {
    "methods": {}
  }
}